:020000040800F2
:10000000600600206D0100082D020008250200088E
:10001000290200081F020008330200080000000047
:100020000000000000000000000000003102000895
:1000300023020008000000002F02000881010008D0
:100040008301000883010008830100088301000880
:100050008301000883010008830100088301000870
:100060008301000883010008830100088301000860
:100070008301000883010008830100088301000850
:100080008301000883010008830100088301000840
:100090008301000883010008830100088301000830
:1000A0008301000883010008830100088301000820
:1000B0008301000883010008830100088301000810
:1000C0008301000883010008830100088301000800
:1000D00083010008830100088301000883010008F0
:1000E00083010008830100088301000800F002F882
:1000F00000F02CF80AA090E8000C82448344AAF196
:100100000107DA4501D100F021F8AFF2090EBAE893
:100110000F0013F0010F18BFFB1A43F0010318473B
:100120001C0100002C0100000023002400250026F3
:10013000103A28BF78C1FBD8520728BF30C148BF4A
:100140000B6070471FB51FBD10B510BD00F02DF836
:100150001146FFF7F7FF00F06EF800F04BF803B41C
:10016000FFF7F2FF03BC00F053F800000848004717
:10017000FEE7FEE7FEE7FEE7FEE7FEE7FEE7FEE757
:10018000FEE7FEE703480449044A054B70470000B8
:10019000ED000008600000206006002060020020E2
:1001A00060020020704770477047754600F02CF8D9
:1001B000AE4605006946534620F00700854618B054
:1001C00020B5FFF7DFFFBDE820404FF000064FF0FD
:1001D00000074FF000084FF0000B21F00701AC467C
:1001E000ACE8C009ACE8C009ACE8C009ACE8C0099B
:1001F0008D46704710B50446AFF300802046BDE839
:100200001040FFF7ACBF000000487047000000201E
:1002100001491820ABBEFEE726000200704700BF70
:10022000FEE7704700BFFEE700BFFEE7704770477C
:10023000704700BFFEE70020704700004C02000836
:0C024000000000206006000028010008FB
:04000005080000ED02
:00000001FF
