:020000040800F2
:10000000D8090020890100083D040008E703000822
:1000100039040008CB020008DF0C000800000000D3
:10002000000000000000000000000000950700082C
:10003000CF02000800000000C50400089D01000870
:100040009F0100089F0100089F0100089F01000810
:100050009F0100089F0100089F0100089F01000800
:100060009F0100089F0100089F0100089F010008F0
:100070009F0100089F0100089F0100089F010008E0
:100080009F0100089F0100089F0100089F010008D0
:100090009F0100089F0100089F0100089F010008C0
:1000A0009F0100089F0100089F0100089F010008B0
:1000B0009F0100089F0100089F0100089F010008A0
:1000C0009F0100089F0100089F0100089F01000890
:1000D0009F0100086D0800081D090008C9090008F3
:1000E0009F0100089F0100089F01000800F002F82E
:1000F00000F03AF80AA090E8000C82448344AAF188
:100100000107DA4501D100F02FF8AFF2090EBAE885
:100110000F0013F0010F18BFFB1A43F0010318473B
:100120003411000054110000103A24BF78C878C17F
:10013000FAD8520724BF30C830C144BF04680C60ED
:10014000704700000023002400250026103A28BF35
:1001500078C1FBD8520728BF30C148BF0B60704739
:100160001FB51FBD10B510BD00F076F81146FFF7A2
:10017000F7FF00F0E7FE00F094F803B4FFF7F2FF9A
:1001800003BC00F09BF8000008480047FEE7FEE7CC
:10019000FEE7FEE7FEE7FEE7FEE7FEE7FEE7FEE737
:1001A00003480449044A054B70470000ED0000086D
:1001B000D8030020D8090020D8050020D805002049
:1001C0004FF000020429C0F0128010F0030C00F080
:1001D0001B80CCF1040CBCF1020F18BF00F8012BFE
:1001E000A8BF20F8022BA1EB0C0100F00DB85FEACC
:1001F000C17C24BF00F8012B00F8012B48BF00F898
:10020000012B70474FF0000200B513469446964606
:10021000203922BFA0E80C50A0E80C50B1F1200119
:10022000BFF4F7AF090728BFA0E80C5048BF0CC0C7
:100230005DF804EB890028BF40F8042B08BF704725
:1002400048BF20F8022B11F0804F18BF00F8012B97
:100250007047704770477047754600F02BF8AE4600
:1002600005006946534620F00700854618B020B5C2
:10027000FFF796FFBDE820404FF000064FF0000763
:100280004FF000084FF0000B21F00701AC46ACE83E
:10029000C009ACE8C009ACE8C009ACE8C0098D46AB
:1002A000704710B50446AFF300802046BDE810400B
:1002B000FFF763BF0048704774030020014918200E
:1002C000ABBEFEE726000200704700BFFEE77047A6
:1002D0002DE9F041024600250026002000230024DD
:1002E000002791F803C00CF00F0591F803C00CF043
:1002F000100CBCF1000F03D091F802C04CEA0505C8
:1003000091F800C0BCF1000F31D0146800202BE040
:100310004FF0010C0CFA00F3B1F800C00CEA030630
:100320009E4220D183004FF00F0C0CFA03F7BC4320
:1003300005FA03FC4CEA040491F803C0BCF1280F51
:1003400006D14FF0010C0CFA00FCC2F814C00AE010
:1003500091F803C0BCF1480F05D14FF0010C0CFA25
:1003600000FCC2F810C0401C0828D1D31460B1F8BA
:1003700000C0BCF1FF0F34DD546800202EE000F116
:10038000080C4FF0010808FA0CF3B1F800C00CEAB1
:1003900003069E4221D183004FF00F0C0CFA03F7A5
:1003A000BC4305FA03FC4CEA040491F803C0BCF119
:1003B000280F05D100F1080C08FA0CF8C2F81480D7
:1003C00091F803C0BCF1480F07D100F1080C4FF0C1
:1003D000010808FA0CF8C2F81080401C0828CED397
:1003E0005460BDE8F08100BFFEE700004CF6CC4051
:1003F00001490860704700000030004001460020BD
:10040000034AD2680A400AB1012000E00020704788
:100410000030004001494860704700000030004053
:1004200001498860704700000030004001490860C1
:10043000704700000030004000BFFEE7704700003A
:1004400070B5002100230F22C47804B3154C246832
:1004500004F4E064C4F5E064210AC1F10403CA4075
:10046000447804FA03F184781440214309010E4CC6
:100470000678A155047804F01F050124AC400578E6
:100480006D11AD0005F1E025C5F8004109E00478E3
:1004900004F01F050124AC40044D0678761145F8A0
:1004A000264070BD0CED00E000E400E080E100E0DB
:1004B00002490143024A1160704700000000FA053A
:1004C0000CED00E07047000029B1064AD2690243F2
:1004D000044BDA6104E0034AD2698243014BDA61DA
:1004E000704700000010024029B1064A1269024319
:1004F000044B1A6104E0034A12698243014B1A61FA
:10050000704700000010024029B1064A9269024378
:10051000044B9A6104E0034A92698243014B9A6159
:10052000704700000010024029B1064AD268024319
:10053000044BDA6004E0034AD2688243014BDA607C
:1005400070470000001002400F48006840F00100B2
:100550000D490860084640680C4908400A4948604F
:10056000084600680A4908400749086008460068CC
:1005700020F4802008600846406820F4FE004860AF
:100580004FF41F0088607047001002400000FFF821
:10059000FFFFF6FE30B500210022002400232D4D80
:1005A0006D6805F00C0121B1042905D0082923D17B
:1005B00005E0294D056022E0274D05601FE0254D2F
:1005C0006D6805F47012234D6D6805F480340225C2
:1005D00005EB92421CB9214D554305600BE01D4DC2
:1005E0006D6805F400351DB11C4D5543056002E0F2
:1005F000194D5543056002E0174D056000BF00BF6F
:10060000144D6D6805F0F0010909154D6B5C056826
:10061000DD4045600F4D6D6805F4E061090A104D3D
:100620006B5C4568DD4085600A4D6D6805F460517E
:10063000C90A0B4D6B5C4568DD40C560054D6D68B2
:1006400005F44041890B074D6B5CC568B5FBF3F5BC
:10065000056130BD0010024000127A0000093D0023
:10066000000000201000002010B5014600220023E9
:1006700000204A11012A02D1094C236806E0022A0F
:1006800002D1074C236A01E0054C636A01F01F02A6
:10069000012494401C400CB1012000E0002010BD5A
:1006A0000010024001460020034A506820F0F0008C
:1006B000084350607047000000100240114909686B
:1006C00021F480310F4A11601146096821F480211C
:1006D0001160B0F5803F03D0B0F5802F0ED106E059
:1006E0000849096841F48031064A116007E005496C
:1006F000096841F4A021034A116000E000BF00BF77
:100700007047000000100240014908607047000077
:100710008004424201460020034A506820F4E06011
:10072000084350607047000000100240014600205E
:10073000034A506820F4605040EAC100506070479E
:100740000010024001460020034A506820F00300D8
:1007500008435060704700000010024038B5002088
:1007600000900024002500BF3120FFF77DFF0546E3
:100770000098401C00900098B0F5A06F01D0002DAB
:10078000F2D03120FFF770FF08B1012400E000240F
:10079000204638BD7047CA430282704721B10288A3
:1007A00042F00102028004E002884FF6FE731A4014
:1007B000028070471AB183890B43838102E08389E9
:1007C0008B43838170470000002202881D4B9842B2
:1007D0000ED01D4B98420BD0B0F1804F08D01B4B70
:1007E000984205D01A4B984202D01A4B984204D135
:1007F0004FF68F731A404B881A43174B984207D015
:10080000164B984204D04FF6FF431A40CB881A4348
:1008100002808B8883850B8803850A4B98420BD016
:10082000094B984208D00E4B984205D00D4B984288
:1008300002D00D4B984201D10B7A038601238382AB
:1008400070470000002C01400034014000040040CB
:1008500000080040000C0040001000400014004060
:1008600000400140004401400048014010B5002014
:1008700000F0FCFB10BD000000B585B00121042094
:10088000FFF742FE01218803FFF73EFE4FF40070A0
:10089000ADF8100003208DF8120018208DF8130019
:1008A00004A91C48FFF714FD4FF48060ADF8100058
:1008B00004208DF8130004A91648FFF709FD4FF432
:1008C000E13000900020ADF80400ADF80600ADF86E
:1008D0000800ADF80C000C20ADF80A0069460E487F
:1008E00000F08CF901210C4800F0D1F800BF402144
:1008F000094800F027F90028F9D04021064800F007
:10090000BDF8012240F22551034800F052F905B02C
:1009100000BD0000000801400038014010B5012072
:1009200000F0A4FB10BD000000B585B0012104203B
:10093000FFF7EAFD01214804FFF7C6FD0420ADF8EA
:10094000100003208DF8120018208DF8130004A960
:100950001B48FFF7BDFC0820ADF8100004208DF8FF
:10096000130004A91648FFF7B3FC4FF4E1300090E0
:100970000020ADF80400ADF80600ADF80800ADF8B1
:100980000C000C20ADF80A0069460E4800F036F95C
:1009900001210C4800F07BF800BF4021094800F01D
:1009A000D1F80028F9D04021064800F067F801226C
:1009B00040F22551034800F0FCF805B000BD0000EE
:1009C000000801400044004010B5022000F04EFB3A
:1009D00010BD000000B585B001210820FFF794FD8F
:1009E00001218804FFF770FD4FF48060ADF810001E
:1009F00003208DF8120018208DF8130004A91C485C
:100A0000FFF766FC4FF40060ADF8100004208DF88D
:100A1000130004A91648FFF75BFC4FF4E130009087
:100A20000020ADF80400ADF80600ADF80800ADF800
:100A30000C000C20ADF80A0069460E4800F0DEF804
:100A400001210C4800F023F800BF40210A4800F0C3
:100A500079F80028F9D04021064800F00FF801226B
:100A600040F22551034800F0A4F805B000BD000095
:100A7000000C0140004800400044004001F40072B6
:100A8000B2F5007F00D100BFCA430280704721B198
:100A9000828942F40052828104E082894DF6FF731C
:100AA0001A4082817047000010B5044620488442F5
:100AB00009D101218803FFF737FD00214FF4804061
:100AC000FFF732FD32E01B48844209D1012148047E
:100AD000FFF70AFD00214FF40030FFF705FD25E088
:100AE0001548844209D101218804FFF7FDFC00214B
:100AF0004FF48020FFF7F8FC18E01048844209D139
:100B00000121C804FFF7F0FC00214FF40020FFF79B
:100B1000EBFC0BE00A48844208D101210805FFF7ED
:100B2000E3FC00214FF48010FFF7DEFC10BD000055
:100B3000003801400044004000480040004C0040A4
:100B40000050004002460020B1F5007F00D100BFF8
:100B500013880B400BB1012000E00020704770B5F6
:100B60000246002400230025002040F66A16B14208
:100B700000D100BFC1F3421501F01F03012606FAA0
:100B800003F3012D02D19689334006E0022D02D1F4
:100B9000168A334001E0968A33400C12012606FA89
:100BA00004F41688344013B10CB1012000E0002099
:100BB00070BDF0B50346002400260025002040F655
:100BC0006A17B94200D100BF1846C1F3421401F0C0
:100BD0001F06012707FA06F5012C01D10C3004E0AD
:100BE000022C01D1103000E014301AB107682F43F5
:100BF000076002E00768AF430760F0BD2DE9F047EA
:100C000086B005460E460024A24600BFA146002736
:100C1000B08900B100BF2F462C8A4CF6FF7004400B
:100C2000F08804432C82AC894EF6F3100440B0885F
:100C300031890843718908430443AC81AC8A4FF67B
:100C4000FF400440B0890443AC8201A8FFF7A2FC36
:100C50001F48874202D1DDF810A001E0DDF80CA0AA
:100C6000A88900F4004040B10AEBCA0000EB0A106A
:100C700031684900B0FBF1F807E00AEBCA0000EB6D
:100C80000A1031688900B0FBF1F86420B8FBF0F07D
:100C900004012009642101FB1089A88900F40040A7
:100CA00040B1322000EBC900B0FBF1F000F00700CA
:100CB000044308E0322000EB09106421B0FBF1F09E
:100CC00000F00F0004432C8106B0BDE8F08700005F
:100CD0000038014001468888C0F30800704700BF13
:100CE000FEE7000008B501211020FFF70DFC0120F0
:100CF000ADF8000002208DF8020028208DF80300D6
:100D000069461B48FFF7E4FA0220ADF800008DF8B1
:100D1000020028208DF8030069461548FFF7D8FA2D
:100D20000420ADF8000002208DF8020028208DF884
:100D3000030069460E48FFF7CBFA0820ADF8000023
:100D400002208DF8020028208DF80300694608482B
:100D5000FFF7BEFA1020ADF8000002208DF8020067
:100D600028208DF8030069460148FFF7B1FA08BD55
:100D70000010014008B54FF4E060FFF799FB1C201C
:100D80008DF8000000208DF801008DF80200012090
:100D90008DF803006846FFF753FB25208DF800000F
:100DA00001208DF8010005208DF8020001208DF84A
:100DB00003006846FFF744FB08BD10B5FFF7C4FB0E
:100DC0004FF48030FFF77AFC00BFFFF7C7FC012823
:100DD000FBD1FFF7B7FC8020FFF764FC0020FFF792
:100DE00099FC0020FFF7A2FC10BD10B5012080F394
:100DF000108800BFFFF7E1FFFFF774FF00F00CF869
:100E0000FFF7B8FF00F066F800F07EF8002080F3EE
:100E1000108800BF10BD000030B589B004A8FFF7EE
:100E2000B9FB4FF47A720598B0FBF2F1B1F1807F13
:100E300000D31DE021F07F40401E4FF0E0225061C2
:100E400050170F22002807DA13071D0E1F4B00F062
:100E50000F04241F1D5503E013071C0E1C4B1C54CC
:100E600000BF00204FF0E02290610720106100BF1A
:100E700001210846FFF728FB0020ADF80A00ADF875
:100E800006008DF80C0064210698B0FBF1F04FF4D9
:100E90007A71B0FBF1F0401E80B2ADF8040063201F
:100EA000ADF8080001A94FF08040FFF78DFC01214B
:100EB0008807FFF770FC012211469007FFF77AFCC4
:100EC00001218807FFF76AFC09B030BD18ED00E08A
:100ED00000E400E010B50948FFF7E6FDFFF7CCFCA1
:100EE0000748FFF7E1FDFFF71FFD0648FFF7DCFDB0
:100EF000FFF770FD00F02AF810BD00000038014037
:100F0000004400400048004010B50120FFF7FCFB02
:100F100000BF6120FFF7A8FB0028FAD045F255502A
:100F2000FFF784FA0220FFF775FA40F6FF70FFF72B
:100F300077FA00BF0120FFF761FA0028FAD0FFF727
:100F400055FA10BDFFF751FF00BFFEE710B53E4C4C
:100F50003E482060802020810020E080A080218900
:100F60002068FFF72DF93A48206180206081002039
:100F7000A081E08161892069FFF722F9207D20F0BE
:100F800002002075207D20F001002075207D20F0DA
:100F90001C000C302075207D20F0E000E030207532
:100FA0002C4C2D482060802020810020E080A080F3
:100FB00021892068FFF704F928482061802060819A
:100FC0000020A081E08161892069FFF7F9F8207D88
:100FD00020F002002075207D20F001002075207D8A
:100FE00020F01C000C302075207D20F0E000E03067
:100FF00020751B4C1B482060802020810020E08051
:10100000A08021892068FFF7DBF817482061802045
:1010100060810020A081E08161892069FFF7D0F81C
:10102000207D20F002002075207D20F00100207539
:10103000207D20F01C000C302075207D20F0E00089
:10104000E030207510BD00002C0100202C00002095
:10105000AC0000204402002044010020C401002014
:101060005C0300205C020020DC02002070B5044616
:10107000774951F8340040F22551FFF770FD002800
:1010800045D0734951F83400FFF724FEC5B27048CB
:1010900000EBC4004068C0896D4901EBC401496898
:1010A0004989884220DA6A4800EBC4004068006938
:1010B000674901EBC4014968C9894554644800EB9C
:1010C000C4004068C089401C614901EBC401496803
:1010D000C8815F4800EBC40040688089401C5C49BF
:1010E00001EBC40149688881594800EBC40040689D
:1010F000007D20F01C000C30554901EBC40149680B
:101100000875534951F834002021FFF7B7FC5049C6
:1011100051F834000821FFF715FD58B14C4951F83A
:101120003400FFF7D7FDC5B2494951F83400082112
:10113000FFF7A4FC464951F8340040F22771FFF74D
:101140000EFD00286CD0424800EBC4004068808847
:101150003F4901EBC4014968C988884227DA3C4805
:1011600000EBC40040680068394901EBC4014968DC
:101170008988405C364951F834108880344800EB47
:10118000C40040688088401C314901EBC4014968B3
:1011900088802F4800EBC4004068007D20F0E0000C
:1011A000E0302B4901EBC4014968087532E028485A
:1011B00000EBC4004068007D20F0E000244901EB12
:1011C000C40149680875224800EBC4004068007DEE
:1011D00020F001001E4901EBC40149680875002098
:1011E0001B4901EBC40149688880194901EBC4011E
:1011F0004968C880164951F83400002240F227712E
:10120000FFF7D7FC124951F83400012240F2266161
:10121000FFF7CFFC0E4951F834008021FFF72EFC78
:101220000B4951F8340040F22661FFF798FC68B191
:10123000074951F83400002240F22661FFF7B9FC5B
:10124000034951F834004021FFF718FC70BD00003D
:101250001400002074120008000000202C00000080
:1012600028010008A01200082C000020AC09000092
:10127000440100080000000001020304010203040D
:101280000607080902040608003801402C01002066
:101290000044004044020020004800405C0300205D
:04000005080000ED02
:00000001FF
